:10000000FBC000002AC1000028C1000026C100007A
:1000100024C1000022C1000020C100001EC1000058
:100020001CC100001AC1000018C1000016C1000068
:1000300014C1000012C1000010C100000EC1000078
:100040000CC100000AC1000008C1000006C1000088
:1000500004C1000002C1000000C100000C949F2EEA
:10006000FCC000000C9463310C949931F6C0000080
:10007000F4C00000F2C00000F0C00000EEC00000BC
:10008000ECC00000EAC00000E8C00000E6C00000CC
:100090000C94EF310C942532E0C000000C947E2DBE
:1000A000DCC00000DAC00000D8C00000D6C00000EC
:1000B000D4C00000D2C00000D0C00000CEC00000FC
:1000C000CCC00000CAC000000C94E5240C947B3224
:1000D0000C94B132C2C000000C9407330C943D3331
:1000E000BCC0000005A84CCDB2D44EB93836A90228
:1000F0000C50B9918688083CA6AAAA2ABE00000026
:10010000803F00000A0B02090C0D0E0807030401D2
:1001100000000000000000000000000000000000DF
:1001200000000000000000000000000000001211AC
:1001300010000000000000000000000000000000AF
:10014000000000000000000001021020200808103C
:100150002040102040800201020108040201010237
:100160000408102040808040201008040201800410
:10017000020180402010080402010804020101026B
:10018000040810204080010204081020408005056A
:100190000505070508080808020202020A0A0808FD
:1001A000040404040101010101010101030303032B
:1001B00003030303040707070C0C0C0C0C0C0C0CBA
:1001C0000202020206060606060606060B0B0B0BCB
:1001D0000B0B0B0B00002200250028002B002E002B
:1001E0003100340002010000050108010B01E92A79
:1001F000C2314E32DA32663311241FBECFEFD1E264
:10020000DEBFCDBF00E00CBF12E0A0E0B2E0ECE248
:10021000F8E600E00BBF02C007900D92A83FB107BF
:10022000D9F72AE0A8EFB2E001C01D92A235B207CB
:10023000E1F710E0CCEFD0E000E006C02197010923
:10024000802FFE010E94E333C73FD10780E00807FB
:10025000A9F70E9448260C941434D2CECF92DF9294
:10026000EF92FF926B017C01C114D104E104F1040F
:1002700069F480910002811109C08091020290917D
:1002800003020E945A2A81E080930002C601880F6F
:10029000991F880F991F80509E4FFF90EF90DF901D
:1002A000CF900895009781F0FC012181211104C0B5
:1002B00040E85AE166E070E0FC01828193810E948F
:1002C000692A90E080E0089588E090E008954F92D8
:1002D0005F926F927F928F929F92AF92BF92CF92D6
:1002E000DF92EF92FF920F931F93CF93DF930097CC
:1002F000C9F1280139017A01EC01402F8A819B81E3
:100300000E94E72A8A819B81DC01ED91FC910084A7
:10031000F185E02D1995892B01F16701812C912C34
:1003200054018A819B81DC01ED91FC910084F1856F
:10033000E02D1995892B91F184149504A604B70436
:1003400069F18A819B81DC01ED91FC910284F38546
:10035000E02D19958F3F9807C1F484E0F7011192C1
:100360008A95E9F788E090E0DF91CF911F910F9196
:10037000FF90EF90DF90CF90BF90AF909F908F90C5
:100380007F906F905F904F900895FFEF8F1A9F0AB4
:10039000AF0ABF0AD6018D936D01C3CF90E080E014
:1003A000E3CF8F929F92AF92BF92CF92DF92EF9264
:1003B0000F931F93CF93DF930097F1F06A01EC0145
:1003C0008A819B810E946C2A8A819B81DC01ED914C
:1003D000FC910280F381E02DA801B60119958A8174
:1003E0009B8160E0E11001C061E00E94762A8823D1
:1003F00089F08250823088F088E090E0DF91CF91E0
:100400001F910F91EF90DF90CF90BF90AF909F9092
:100410008F90089590E080E0F1CF84E090E0EECFFF
:10042000089590E080E008950F931F93009709F4DA
:100430008BC06115710509F487C0009118021091F5
:10044000190220911A0230911B020E3F1F4F2F4FAD
:100450003F4F09F06AC04FEF5FEFBA0140931802B7
:100460005093190260931A0270931B024091180274
:100470005091190260911A0270911B02DC011296D0
:10048000ED91FC9180819181A281B3818093FD03E4
:100490009093FE03A093FF03B093000484819581A1
:1004A000A681B7818093F9039093FA03A093FB038D
:1004B000B093FC0380859185A285B3858093F50375
:1004C0009093F603A093F703B093F8038485958582
:1004D000A685B7858093F1039093F203A093F3036D
:1004E000B093F4031092ED031092EE031092EF0319
:1004F0001092F00377D687E199E09093F902809308
:10050000F8029093FB028093FA029093FD0280938D
:10051000FC0257D5009731F421E030E0309302041B
:10052000209301041F910F910895009118021091DA
:10053000190220911A0230911B02DB010D931D93C9
:100540002D933C93139792CF8FEF9FEFEBCF8F922A
:100550009F92AF92BF92CF92DF92EF92FF921F9342
:10056000CF93DF934B015C011091040482E090E093
:10057000909302048093010481149104A104B104B6
:1005800041F480910404811104C080910304C1E00E
:100590008111C0E0C12CD12C76018091040481111D
:1005A00006C080910304811102C0CC23D9F083E0FE
:1005B00090E09093020480930104CC2379F1CCE97C
:1005C000DFEF111102C00E947C0CCE01DF91CF91B0
:1005D0001F91FF90EF90DF90CF90BF90AF909F90D2
:1005E0008F9008956AE070E080E090E00E940E2F06
:1005F00080E1C80E87E2D81EE11CF11C8FEF88163F
:100600009806A806B80631F0C1E08C149D04AE042B
:10061000BF0408F0C0E080E008D5BFCFD0E0C0E064
:10062000D0CFCF92DF92EF92FF920F931F93CF9391
:10063000DF938F3F910511F008F050C02091010425
:10064000309102042330310539F0209101043091BA
:1006500002042130310531F424E030E0309302040B
:10066000209301046A017B01EC0183309105A0F025
:1006700011E0AE01C701B601A3D4AB01BC01CE01AC
:100680001123F9F0DF91CF911F910F91FF90EF901F
:10069000DF90CF900C94A50E8C01000F111F085015
:1006A0001D4FD8018D919C91892B11F30E94AF0EA3
:1006B0000297F1F6D801ED91FC91CE011995182F12
:1006C000D8CF0E94C70E90E080E0DF91CF911F91BC
:1006D0000F91FF90EF90DF90CF9008958FEF9FEFF5
:1006E000F4CF80E0A2C4CF93DF9386E090E09093B4
:1006F000020480930104F2D4EC01E8EFF2E086E01A
:10070000DF011D928A95E9F70E94140C10920204F1
:1007100010920104CE01DF91CF91089580910304DE
:1007200008958091EC030895609318027093190264
:1007300080931A0290931B0290E080E00895FC01E0
:1007400091E08091BA03811190E092830895CF9255
:10075000DF92EF92FF920F931F93CF93DF9300D01E
:10076000CDB7DEB78091BA038F5F8A3008F0B9C089
:100770008093BA03E091C203F091C3032091100269
:1007800030911102409112025091130260817181E7
:10079000828193810E94C528209114023091150214
:1007A00040911602509117020E94DA260E942829D1
:1007B000209108023091090240910A0250910B02E7
:1007C0000E94C52820910C0230910D0240910E022A
:1007D00050910F020E94DA260E94AB276B017C0128
:1007E000ECD2811181C0C701B601A2D281117CC0B7
:1007F00020E030E040E857E4C701B6010E94C52779
:100800006B017C0120E030E0A9010E943E2787FFB8
:100810006EC0C701B60190580E944227719561953C
:10082000710980E289837A836B83C12CE12C03E018
:1008300010E020E030E0AE014F5F5F4F60E570E018
:1008400080912E0A90912F0AACDD8093130A60915B
:10085000A8037091A9038091AA039091AB036F5FE5
:100860007F4F8F4F9F4F6093A8037093A90380938E
:10087000AA039093AB03E090C203F090C3030E94DD
:100880006E279B01AC016091AC037091AD03809128
:10089000AE039091AF030E94C528F7016083718376
:1008A000828393838091B0039091B103A091B203AE
:1008B000B091B3030196A11DB11D8093B003909335
:1008C000B103A093B203B093B3030F900F900F90B6
:1008D000DF91CF911F910F91FF90EF90DF90CF901C
:1008E00008951092BA0346CFC12CD12C7601C701CE
:1008F000B6010E94422795CFCF92DF92EF92FF92EE
:100900000F931F93CF93DF9300D01F921F92CDB709
:10091000DEB7C0900402D0900502E0900602F0908D
:100920000702A70196016091240A7091250A80911F
:10093000260A9091270A0E943E27882341F0C09200
:10094000240AD092250AE092260AF092270A81E230
:100950008D83C12CEE24E39401E010E020E030E030
:10096000AE014B5F5F4F60E570E080911A0A909195
:100970001B0A17DD81113EC0CC24C394E12C04E096
:1009800010E020E030E0AE014F5F5F4F60E570E0C7
:1009900080911A0A90911B0A9ADC89819A81AB8115
:1009A000BC8180930F0A9093100AA093110AB09310
:1009B000120A8091B4039091B503A091B603B0914F
:1009C000B7030196A11DB11D8093B4039093B503A5
:1009D000A093B603B093B7030F900F900F900F90B2
:1009E0000F90DF91CF911F910F91FF90EF90DF90CB
:1009F000CF90089510920F0A1092100A1092110AC7
:100A00001092120AD6CF4F925F926F927F928F927E
:100A10009F92AF92BF92CF92DF92EF92FF920F938D
:100A20001F93CF93DF9384E090E04BD1E0E1F3E0BC
:100A30008FEB93E097838683C2ECD3E0D09351038E
:100A4000C09350030CEA13E0158B048BF0937B03E7
:100A5000E0937A03F583E48321E030E0DC012D9319
:100A60003C931092910381E492E09387828724EC77
:100A700033E03983288340E050E060E87FEB409327
:100A8000BB035093BC036093BD037093BE034FE65A
:100A900052E163E87AE3D8014D935D936D937C93C3
:100AA0001397C6E9D3E08DEA93E2AFE9B3E988830F
:100AB0009983AA83BB8381EC9CEAA7EFB5EC809372
:100AC0009A0390939B03A0939C03B0939D038DEE98
:100AD0009EECA6EAB3E480939E0390939F03A093B9
:100AE000A003B093A1038AE79DECA2E8B3EE809344
:100AF000A2039093A303A093A403B093A503A4E03F
:100B0000B3E0B383A283EEEFF2E01196FC93EE9391
:100B100083E592E0918380839383828395838483AA
:100B200086EA93E015969C938E9314971396DC9324
:100B3000CE93129717963C932E931697C4E1DAE062
:100B4000412C80E5582E83EC682E88E4782E48A24C
:100B500059A26AA27BA21B8E1A8E1C8A812C912C10
:100B6000540183948D8A9E8AAF8AB88E50E040E00B
:100B700060E070E0CB0172DB9B8F8A8F20EAC22E8F
:100B800026E8D22EEE24E394F12CCC8EDD8EEE8E70
:100B9000FF8E40EA56E861E070E084DB11E0198FD7
:100BA0004C865D866E867F861F821E8218828091AB
:100BB000040290910502A0910602B0910702888B71
:100BC000998BAA8BBB8B89829A82AB82BC8250E0C4
:100BD00040E060E070E0CB0141DB9F838E83C886FC
:100BE000D986EA86FB8640EA56E861E070E05ADB87
:100BF0001D83DF91CF911F910F91FF90EF90DF90B8
:100C0000CF90BF90AF909F908F907F906F905F90AC
:100C10004F9008958091280A811118C081E0809337
:100C2000280A8091290A90912A0AA0912B0AB09152
:100C30002C0A0197A105B10549F480912D0A88235A
:100C400029F080912E0A90912F0AEADB8091140AF4
:100C5000811118C081E08093140A8091150A909147
:100C6000160AA091170AB091180A0197A105B105BB
:100C700049F48091190A882329F080911A0A9091E9
:100C80001B0ACECB089560E070E080E89FE70895EE
:100C900060E070E080E89FE7089560E070E080E841
:100CA0009FEF089560E070E080E89FEF089560E0B6
:100CB00070E080EC9FEF089560E070E080EC9FEFC3
:100CC0000895F5DF6093440A7093450A8093460ABD
:100CD0009093470AF1DF6093380A7093390A809342
:100CE0003A0A90933B0ACFDF6093400A7093410A1F
:100CF0008093420A9093430ACBDF60933C0A70933F
:100D00003D0A80933E0A90933F0AC7DF6093480AEA
:100D10007093490A80934A0A90934B0AC3DF609309
:100D20004C0A70934D0A80934E0A90934F0A08958F
:100D3000CF92DF92EF92FF92CF936B017C01AC01D7
:100D40009B016091400A7091410A8091420A909102
:100D5000430A0E943E27C1E0882371F0A701960153
:100D60006091480A7091490A80914A0A90914B0A11
:100D70000E943E278111C0E08C2FCF91FF90EF9011
:100D8000DF90CF9008950F931F938B019C01002754
:100D9000112720783F770115110520483F4749F476
:100DA000AB01BC016F77772781E0452B462B472BA2
:100DB00009F480E01F910F910895E5CF4F925F9263
:100DC0006F927F928F929F92AF92BF92CF92DF925B
:100DD000EF92FF920F931F93F8944090DC03509092
:100DE000DD036090DE037090DF03C090D003D090ED
:100DF000D103E090D203F090D3034130510509F0C4
:100E0000A4C09B01AC0124193509460957092901E1
:100E10003A010091D8031091D9032091DA0330915F
:100E2000DB0348015901840C951CA61CB71C8016D5
:100E30009106A206B306A0F40091D4031091D50345
:100E40002091D6033091D7030F5F1F4F2F4F3F4F95
:100E50000093D4031093D5032093D6033093D70384
:100E60008092D8039092D903A092DA03B092DB0368
:100E70000091D4031091D5032091D6033091D7036C
:100E80008092E0039092E103A092E203B092E30328
:100E90000093E4031093E5032093E6033093E70304
:100EA0006093DC037093DD038093DE039093DF0394
:100EB000A8EEB3E0A30192010E94EB336C0D7D1DFF
:100EC0008E1D9F1D6093D0037093D1038093D20336
:100ED0009093D303009118021091190220911A02E5
:100EE00030911B020F3F1F4F2F4F3F4FF1F00091EA
:100EF00018021091190220911A0230911B020E3F24
:100F00001F4F2F4F3F4F89F0C0901802D090190209
:100F1000E0901A02F0901B0221E08C149D04AE04B4
:100F2000BF0408F420E02093EC0378941F910F9104
:100F3000FF90EF90DF90CF90BF90AF909F908F90F9
:100F40007F906F905F904F9008954B015C018418E3
:100F50009508A608B708A3019201261B370B480B7A
:100F6000590B6415750586059705D0F08216930612
:100F7000A406B50640F420E030E0A90181149104F4
:100F8000A104B10491F4A8EEB3E00E94EB33A701F1
:100F90009601261B370B480B590BCA01B901C5CF67
:100FA00082169306A406B50670F7A8EEB3E0A50175
:100FB00094010E94EB336C0D7D1D8E1D9F1DB5CFDE
:100FC000FDCECF93DF9300D01F92CDB7DEB71C824A
:100FD0001B821A8219821092E8031092E903109280
:100FE000EA031092EB03BE016F5F7F4FCE010396C1
:100FF0000E94B52469817A818B819C810E94D61DD3
:10100000009761F4BE016F5F7F4FCE0103960E948F
:10101000C12469817A818B819C812FD50F900F909B
:101020000F900F90DF91CF910895FF920F931F9330
:10103000CF93DF93082F60E070E0CB010E940E2F6A
:10104000FF24F3940E94BF1CEC01892B89F010E06F
:10105000CE3F8FEFD80769F0002361F160E070E0C8
:10106000CB010E940E2F81E090E0892B59F322C022
:1010700011E026D5EC01892B21F0CE3F8FEFD80768
:1010800059F711111EC011E0229609F410E00E94D8
:101090006F1CEC01892B21F0CE3F8FEFD807E1F6D2
:1010A000111111C011E0CE3F8FEFD80709F410E005
:1010B00001110BC0CE01DF91CF911F910F91FF90D5
:1010C000089511E0E4CF11E0F3CF60E070E0CB01D0
:1010D0000E940E2F1F25812F90E0C7CFCF93DF9363
:1010E0008091EC03882321F060E070E0CB014DD6C5
:1010F00036D6D0E0C0E0892B71F06AE070E080E085
:1011000090E00E940E2F81E090DF29D62196C03D0D
:1011100027E0D20781F728D60E942A1E10920404E5
:10112000109203041092FD031092FE031092FF032D
:10113000109200041092F9031092FA031092FB032C
:101140001092FC031092F5031092F6031092F7032D
:101150001092F8031092F1031092F2031092F3032D
:101160001092F4031092ED031092EE031092EF032D
:101170001092F0034EEF5FEF6FEF7FEF4093180296
:101180005093190260931A0270931B021092EC03A1
:10119000E0EEF3E028E0DF011D922A95E9F71092D6
:1011A000DC031092DD031092DE031092DF03109235
:1011B000D8031092D9031092DA031092DB03109235
:1011C000D4031092D5031092D6031092D703109235
:1011D000D0031092D1031092D2031092D303DF9167
:1011E000CF910895109210041092110410921204DD
:1011F0001092130410920F04809118049091190416
:1012000090930E0480930D0410920C0410920B0422
:1012100010920704109208041092090410920A0414
:10122000109215041092140490E080E00895CF927B
:10123000DF92EF92FF920F931F93CF938C01019750
:1012400009F055C0209118043091190480910D04C3
:1012500090910E04409118045091190450930E047B
:1012600040930D042817390781F010920C04109256
:101270000B041092070410920804109209041092B3
:101280000A0410921504109214048091180490918D
:101290001904019761F58091140490911504892B2C
:1012A00021F480911C02811112C08091140490914C
:1012B00015040197E1F48091070490910804A0912E
:1012C0000904B0910A040197A105B10581F41092B7
:1012D0000704109208041092090410920A04109254
:1012E0001C0282E090E09093150480931404809196
:1012F000180490911904019709F01CC180912E04E3
:1013000090912F048017910709F014C180912A044D
:1013100090912B04A0912C04B0912D04009709F416
:1013200009C12091290421110DC040912A04509136
:101330002B0460912C0470912D04452B462B472BD8
:1013400009F4F8C0209114043091150422303105BD
:1013500009F0F0C020910B042111ECC0FC01C08009
:10136000D180E280F38080910F04882309F4D3C0F8
:1013700080911B0490911C04892B09F4FEC02091DC
:101380001B0430911C0481E02230310509F080E01B
:1013900020911B0430911C04C1E02130310549F03B
:1013A00020911B0430911C04C1E02230310509F06A
:1013B000C0E0882309F456C020912504309126040A
:1013C0004091270450912804C701B6010E94C1280A
:1013D00087FD14C0209125043091260440912704F4
:1013E00050912804609110047091110480911204AE
:1013F000909113040E943E2787FD22C0209125046E
:10140000309126044091270450912804C701B60169
:101410000E94C128181634F5209125043091260425
:101420004091270450912804609110047091110498
:1014300080911204909113040E943E27811112C0E2
:1014400080911D0490911E04A0911F04B09120046E
:10145000892B8A2B8B2B19F481E080930C0481E07B
:1014600080930B04CC2309F456C0209125043091BD
:1014700026044091270450912804C701B6010E9418
:101480003E2787FF14C02091250430912604409107
:1014900027045091280460911004709111048091E8
:1014A0001204909113040E94C12887FF22C020914A
:1014B0002504309126044091270450912804C70147
:1014C000B6010E943E27811126C02091250430914B
:1014D00026044091270450912804609110047091D3
:1014E000110480911204909113040E94C1281816CF
:1014F00094F480911D0490911E04A0911F04B0915A
:101500002004892B8A2B8B2B19F481E080930C0407
:1015100081E080930B0481E090910B04911180E0B5
:1015200080930F04C0921004D0921104E092120430
:10153000F09213040130110509F067C18091140481
:1015400090911504892BD9F410921A0410920B046F
:1015500080911C02882379F082E090E0909315043A
:101560008093140410921C022091180430911904E5
:1015700081E0232BE9F080E01BC081E009CF1092CD
:101580001C0280911A04882349F010920C041092D6
:1015900015041092140410921A04EDCF80911804CF
:1015A00090911904892BE1F080910B0410920B04A7
:1015B00020911404309115042230310509F45EC0E5
:1015C00088F42115310509F448C02130310509F4AA
:1015D000F3C010920C0410920B0410921A0438C03D
:1015E00081E0E6CF2330310509F4B1C02430310564
:1015F00081F74091070450910804609109047091AB
:101600000A04411551056105710561F04150510908
:101610006109710940930704509308046093090419
:1016200070930A04409107045091080460910904E2
:1016300070910A04452B462B472BD9F420911604B0
:10164000309117042130310509F046C010920C0486
:1016500010921504109214040CC080911C0288236F
:1016600041F082E090E0909315048093140410926E
:101670001C021092050480910C04CEC08823C9F38B
:1016800080911D0490911E04A0911F04B09120042C
:10169000181619061A061B060CF07DC08091180456
:1016A00090911904019709F076C080911D049091E2
:1016B0001E04A0911F04B09120048093070490930E
:1016C0000804A0930904B0930A0483E090E0909387
:1016D000150480931404CDCF40912104509122042D
:1016E0006091230470912404452B462B472BA9F0CD
:1016F00010920C048091210490912204A091230463
:10170000B09124048093070490930804A0930904E3
:10171000B0930A0481E090E0DACF882399F08091B9
:101720001D0290911E02A0911F02B0912002809391
:10173000070490930804A0930904B0930A0484E07A
:1017400090E0C5CF10920C0482E090E0C0CF809171
:10175000070490910804A0910904B0910A0400972D
:10176000A105B10559F00197A109B10980930704BA
:1017700090930804A0930904B0930A04809107048D
:1017800090910804A0910904B0910A04892B8A2B36
:101790008B2B09F06ECF80911D0290911E02A091BB
:1017A0001F02B0912002892B8A2B8B2B09F44ECF7C
:1017B00081E080930C04B3CF40910704509108045A
:1017C0006091090470910A04411551056105710584
:1017D00061F0415051096109710940930704509328
:1017E00008046093090470930A044091070450911F
:1017F00008046091090470910A04452B462B472B7D
:1018000009F037CF8111C7CF9FCF8091050488237E
:1018100009F431CF80910604CF911F910F91FF9071
:10182000EF90DF90CF900895109210041092110461
:10183000109212041092130410920F0410921504C7
:101840001092140410920E0410920D0410922F04A2
:1018500010922E0410920C0410920B0410920704A4
:10186000109208041092090410920A0410920604BF
:101870001092050410922A0410922B0410922C044A
:1018800010922D041092290410922504109226041F
:10189000109227041092280488EE93E0A0E0B0E0B4
:1018A00080931D0290931E02A0931F02B09320020A
:1018B0001092210410922204109223041092240406
:1018C00010921D0410921E0410921F041092200406
:1018D00010921C0410921B0481E080931C02109251
:1018E0001A041092190410921804109217041092FE
:1018F000160490E080E008958091180490911904F6
:10190000892B19F580911C02882351F080911A04CB
:10191000811106C081E08093060480930504089538
:1019200020911A0430911C0281E090E0332311F0E1
:1019300090E080E030E082239323892B21F0109205
:10194000060481E0EACF10920504089582E090E059
:10195000FA01918380838FEF9FEF0895CF93DF93F8
:10196000EA01009711F00E94441F1982188290E04A
:1019700080E0DF91CF910895DB01009719F48FEF9C
:101980008C9308952EEF2C93FC013F96EF30F105D8
:1019900008F034C08827E053F34F8F4F0C94E333A3
:1019A000FC0CFA0CF80CF60CF40CF00CF20CEE0C2F
:1019B000EC0CEA0CE70CE30CDF0CE50CFE0C80E30E
:1019C00011968C93089589E2FBCF82E2F9CF1196AC
:1019D0001C92089583E2F4CF81E2F2CF81E1F0CF4F
:1019E00087E2EECF8AE2ECCF80E1EACF84E2E8CF73
:1019F00088E2E6CF86E2E4CF81E3E2CF80E2E0CF87
:101A000080913C0490913D04089590933D0480930F
:101A10003C04089580913B04089590913B04892BE8
:101A200080933B040895982F909580913B048923DF
:101A300080933B04089580913A040895809138047E
:101A40009091390408956115710559F0FB0130E05A
:101A500020E070E060E02417350719F0611571058A
:101A600011F0CB010895A081B181A817B90709F43D
:101A7000BF012F5F3F4F3696EECF80913E0481111C
:101A80001CC060D266D290933104809330040E94CF
:101A900055170E94671790933504809334040E9471
:101AA000D71B0E94DE1B909333048093320481E0A5
:101AB00080933E0490E080E0089584EF9FEF0895C6
:101AC0008F929F92AF92BF92CF92DF92EF92FF924E
:101AD0000F931F93CF93DF9300D000D000D01F92BD
:101AE000CDB7DEB71A86198618861F821E821D8220
:101AF0001C821B821A82198280913E0407EF1FEF1D
:101B0000882309F49CC08E010D5F1F4F9E012B5F3F
:101B10003F4FAE01495F5F4FBE01675F7F4F90E06F
:101B200080E00E945B1D8C01009721F005960297D2
:101B300008F0DBC029853A852115310509F402C179
:101B4000ED80FE804B815C81B701640F751F8F8132
:101B500098858617970708F4F5C0E20EF31ED701A3
:101B60009C91903C09F07FC04230510508F47BC045
:101B700011968C9140913C0450913D04452B09F401
:101B80009CC0913F08F071C02CE1290F2D3008F462
:101B90008BC02DE2290F203108F489C0903C21F43C
:101BA0008150823008F483C088E3890F8B3008F4B9
:101BB00081C09CEBC92E9CE0D92EE6EAFCE06D8149
:101BC0007E81AE014F5F5F4F89859A8519955C01D3
:101BD000C114D104A1F189809A808114910479F112
:101BE0008B819C818815990508F487C010E000E07E
:101BF0004B815C8170E060E0C7010E940D340115EB
:101C00001105E9F449815A8169857A858D819E8122
:101C1000680F791FC501F6011995E980FA800D81D9
:101C20001E812F81388549855A856FEF7FEF81E0CE
:101C300090E00E94F61C8C01892B09F056C0C80167
:101C40002A960FB6F894DEBF0FBECDBFDF91CF91BD
:101C50001F910F91FF90EF90DF90CF90BF90AF90CA
:101C60009F908F90089580E085CF30E020E0220F94
:101C7000331FF901E05DFB4F0190F081E02D3097BB
:101C800009F497CF892F90E01995009709F491CF27
:101C9000DC011296ED91FC9113971496CD90DC9097
:101CA000309709F08CCF1FC021E030E0E0CF22E078
:101CB00030E0DDCF23E030E0DACFD12CC12CEEEAEA
:101CC000FCE09F3F09F07BCFE0913004F0913104BC
:101CD000309721F4C90104EF1FEF0CC08FEF90E0A3
:101CE00019950097A9F604EF1FEF89859A8500974B
:101CF00009F4A5CF0E94441FA2CF0E94251E8C018B
:101D000089859A850E94441F70E060E0C4010E94AA
:101D1000BE1D98878F830E94F31C9E838D836F81E5
:101D200078856115710559F0C8010E94A3209A8732
:101D3000898706EF1FEF892B09F058CF59CF08EF9D
:101D40001FEF56CF08EF1FEFD0CF20913E04222384
:101D500019F020E00C946C1787EF9FEF08958091A5
:101D60003C0490913D0408950E94E31B0E943D1B9A
:101D7000F5D0E0E3F4E088E0DF011D928A95E9F711
:101D800010923E0490E080E008950C949A1921E0AE
:101D900040E050E0BA010C946C1786E090E0FA0144
:101DA0009183808390E080E0089547E050E066E50D
:101DB00072E049CEDF92EF92FF920F931F93CF9381
:101DC000DF938A01EC01C60FD71FE0904204F09028
:101DD0004304D9800E940D1ED816190678F082E0BF
:101DE00090E0F801918380838EEF9FEFDF91CF9198
:101DF0001F910F91FF90EF90DF900895EF2841F42D
:101E000082E090E0F8019183808384EF9FEFEECF32
:101E100089818093410490E00196F8019183808349
:101E200090E080E0E3CFCF93DF93EA010E944B1A6A
:101E3000882321F00E941A1E0E944C1A82E090E032
:101E4000998388838BEF9FEFDF91CF910895CF9394
:101E5000DF93EB0186E0FB0111928A95E9F78FEFA2
:101E60008883D8DD8983E7DD8A83E8DD9D838C83E1
:101E7000DF91CF910895CF93DF93EA010E944E1A2C
:101E8000811109C082E090E09983888385EF9FEFFC
:101E9000DF91CF91089590E080E0B7DD81E090E0A0
:101EA0009983888390E080E0F3CF0F931F93CF93C3
:101EB000DF93EA018C01060F171F0E944E1A811151
:101EC0000BC082E090E09983888385EF9FEFDF91DC
:101ED000CF911F910F910895F8018181823038F0E0
:101EE00082E090E0998388838EEF9FEFF0CF81E0CE
:101EF00090E08BDD88E090E09983888390E080E03B
:101F0000E6CFCF93DF930097D1F4EB01FB0132963C
:101F100086E0DF011D928A95E9F78FEF888385E0DF
:101F200089831A820E940D1E8B830E940C1E9D8342
:101F30008C8381E08E838F83DF91CF910895DF9131
:101F4000CF911ACD85ED9EE09093400480933F049D
:101F5000089580913F0490914004089510924004A8
:101F600010923F0408958091420490914304089593
:101F7000411105C0611571058105910561F06093FE
:101F80004204709343048093440490934504409327
:101F9000460481E0089580E00895FF920F931F9317
:101FA000CF93DF938A01EC01C60FD71FF9800E94FF
:101FB0000D1EF816190668F082E090E0F801918392
:101FC00080838EEF9FEFDF91CF911F910F91FF9054
:101FD00008956C817D818E819F814B81C9DF811144
:101FE00008C082E090E0F8019183808384EF9FEF46
:101FF000EACF89818093410490E00196F8019183B2
:10200000808390E080E0DFCFCF93DF93EA01FC0193
:10201000E60FF71F64817581868197814381A8DF70
:10202000811109C082E090E09983888384EF9FEF5B
:10203000DF91CF91089581E090E09983888390E0CB
:1020400080E0F6CFE2E4F4E0408151816281738167
:10205000480F511D611D711D40835183628373833D
:102060000895CF93C09141044C2F50E060914204F9
:102070007091430401960E9404348C2FE3DF109288
:102080004104CF910895009799F480914204909172
:1020900043042FEFFB012083892B59F02091410449
:1020A00030E02F5F3F4F2417350719F4CB01D9CF0C
:1020B00063CC0895009799F4809142049091430471
:1020C0002FEFFB012083892B59F02091410430E050
:1020D0002F5F3F4F2417350719F4CB01C2CF4CCCEB
:1020E000089523E1AC01249FC001259F900D112488
:1020F000E0914B04F0914C04E80FF91F23813481E7
:102100002250310981E02230310508F080E0089545
:102110000F931F93CF93DF9300914D0410914E04C2
:10212000D0E0C0E080E00C171D0749F491E0811178
:1021300090E0892FDF91CF911F910F910895811128
:10214000F5CFCE01CEDF2196EECFA0914B04B0911A
:102150004C04109729F120914D0430914E048217C0
:102160009307F0F453E1589F9001599F300D1124CB
:10217000A20FB31FED91FC911197309789F0129641
:102180008C91681768F48BE0689FE00DF11D1124B5
:1021900080819181892B21F081E09281491708F09B
:1021A00080E008959C0143E1429FC001439F900D50
:1021B0001124E0914B04F0914C04E80FF91F838542
:1021C000823099F481E090E065817681409121022E
:1021D000509122026417750711F490E080E0892B7A
:1021E00021F081E02230310508F080E00895EF927F
:1021F000FF920F931F93CF93DF93EA01FC01E60F49
:10220000F71F02811381E480F5804F2D6E2DC801E8
:102210009CDF81110DC082E090E0998388838EEF6E
:102220009FEFDF91CF911F910F91FF90EF90089555
:10223000C80157DF882339F082E090E099838883D2
:1022400088EF9FEFEECF1093280200932702E092D1
:102250002902F0922A0281E090E09983888390E03D
:1022600080E0DFCFCF92DF92EF92FF920F931F9328
:10227000CF93DF937A01EC01C60FD71FC0902702DE
:10228000D09028020091290210912A02412F602F3C
:10229000C6015BDF811110C082E090E0F7019183FD
:1022A00080838AEF9FEFDF91CF911F910F91FF9075
:1022B000EF90DF90CF900895C60113DF882341F09F
:1022C00082E090E0F7019183808388EF9FEFEBCF6E
:1022D0004C815D816E817F819A8189818F3F41F040
:1022E00082E090E0F701918380838EEF9FEFDBCF58
:1022F000E3E1EC9D9001ED9D300D1124E0914B0444
:10230000F0914C04E20FF31F0190F081E02D2BE0DF
:10231000029FE00DF11D11240190F081E02D27E0D6
:10232000129FE00DF11D1124808391838B818283A4
:1023300043835483658376831F5F10932A0281E071
:1023400090E0F7019183808390E080E0ACCFEF9242
:10235000FF920F931F93CF93DF937A018C01060FA7
:10236000171FC0914B04D0914C04209781F021E0BD
:1023700030E0F8018281938140914D0450914E04E8
:102380008417950710F030E020E0232B71F482E0F1
:1023900090E0F701918380838EEF9FEFDF91CF91E3
:1023A0001F910F91FF90EF90089543E1489F900196
:1023B000499F300D1124C20FD31F93DE882341F0B3
:1023C00082E090E0F7019183808388EF9FEFE6CF72
:1023D000F8012481358120383105C8F687818111C3
:1023E000D6CF4181842F90E08F7E009741F082E02C
:1023F00090E0F7019183808386EF9FEFCFCF4F83EB
:102400003E832D83268128871986223010F421E00F
:10241000288721E030E0F70131832083BFCF88E0B7
:1024200090E0FA019183808390E080E00895FB01C1
:102430008FEF808381E181838FEF9FEF938382838E
:1024400080E890E095838483168217820895FB01CB
:102450008FEF808391E0918382839383848384E3ED
:10246000858381E090E0978386830895BF92CF9221
:10247000DF92EF92FF920F931F93CF93DF93DA01D6
:10248000FC01E60FF71F8181813081F082E090E04E
:102490008D939C938FEF9FEFDF91CF911F910F91C1
:1024A000FF90EF90DF90CF90BF900895C281D381CD
:1024B000B480858106811781E0904B04F0904C0434
:1024C000E114F10439F482E090E08D939C938CEF59
:1024D0009FEFE2CF20914D0430914E04C217D307F5
:1024E00038F082E090E08D939C938EEF9FEFD4CFF5
:1024F000C230D10538F082E090E08D939C9386EF56
:102500009FEFCACF9B2D9D7FB1F78130A1F7B1100E
:1025100005C00130110531F080E004C081E00230D7
:102520001105D0F3882339F36D01CE01DADD88235C
:1025300041F082E090E0F6019183808388EF9FEF85
:10254000ABCF83E18C9FF0018D9FF00D1124EE0D38
:10255000FF1DB38681E0848716870587108A17865A
:1025600081E090E0F6019183808390E080E094CF59
:102570004CE050E060E872E066CA8F929F92BF9292
:10258000CF92DF92EF92FF920F931F93CF93DF933F
:10259000EA01FC01E60FF71F828193810481B58077
:1025A000E0914B04F0914C04309791F482E090E07C
:1025B000998388838CEF9FEFDF91CF911F910F91CB
:1025C000FF90EF90DF90CF90BF909F908F900895F5
:1025D00020914D0430914E048217930738F082E029
:1025E00090E0998388838EEF9FEFE6CF23E1289FC9
:1025F0006001299FD00C1124EC0DFD1DE080F180BD
:10260000E114F10499F28281081748F78BE0089FE2
:1026100080011124E00EF11EF70180819181892B48
:1026200029F6BB20E1F2F7E0BF9E40011124C4016E
:102630000E940B1FF70191838083E0914B04F0917E
:102640004C04EC0DFD1D0190F081E02DE00FF11F19
:1026500080819181009739F482E090E099838883AA
:102660008DEF9FEFA9CFA40170E060E00E940D34D0
:1026700080914B0490914C04C80ED91EF6018081C4
:102680009181080F191FF801B28281E090E09983CF
:10269000888390E080E090CFAF92BF92CF92DF929C
:1026A000FF920F931F93CF93DF93EA01FC01E60F94
:1026B000F71F82819381F48000914B0410914C04A8
:1026C0000115110581F482E090E0998388838CEFF5
:1026D0009FEFDF91CF911F910F91FF90DF90CF90EF
:1026E000BF90AF90089520914D0430914E04821711
:1026F000930738F082E090E0998388838EEF9FEF14
:10270000E8CF2FEF2F0D2C3FA8F723E1289F600182
:10271000299FD00C11240C0D1D1DF8018081918181
:10272000892B89F6FBE0FF9E50011124C5010E9410
:102730000B1FF80191838083E0914B04F0914C04CE
:10274000EC0DFD1D80819181009739F482E090E0CD
:10275000998388838DEF9FEFBCCFA50170E060E087
:102760000E940D34E0914B04F0914C04EC0DFD1DE2
:10277000F28281E090E09983888390E080E0A9CFA5
:10278000CF92DF92EF92FF920F931F93CF93DF933D
:10279000860F971FFC010281138180914B04909159
:1027A0004C04892B81F082E090E0FA0191838083D0
:1027B0008CEF9FEFDF91CF911F910F91FF90EF90E2
:1027C000DF90CF900895C801B0E0A0E00197A10983
:1027D000B1098F3F9F4FA105B10540F082E090E025
:1027E000FA01918380838EEF9FEFE4CF7A0183E13A
:1027F000809F6001819FD00C1124C6010E940B1F95
:10280000EC01009741F482E090E0F701918380832E
:102810008DEF9FEFCFCFA60170E060E00E940D34F6
:10282000D0934C04C0934B0410934E0400934D047A
:1028300090E080E02FEF3FEF41E061E070E0801733
:10284000910741F481E090E0F7019183808390E06B
:1028500080E0B0CF3A8B298B1B864C877E876D87B3
:10286000188A1F8601966396EACFCF92DF92EF9285
:10287000FF920F931F93CF93DF93EC01D12CC12CC8
:1028800010E000E0F12CE12C6A816017110609F0DC
:10289000CCF483E0689FB0011124AE014F5E5F4F1E
:1028A000C7010E94701F009721F02FEF3FEF3A8B76
:1028B000298BDF91CF911F910F91FF90EF90DF90C7
:1028C000CF900895E881F981EC0DFD1D438154817D
:1028D0008D859E85489F9001499F300D589F300DF2
:1028E0001124C90101960115110519F44F8144FD08
:1028F000049661E070E00E94BE1DE816F90608F437
:102900007C010F5F1F4F8BE0C80ED11CBDCFF89428
:102910002091490430914A0481E02115310509F0E4
:1029200080E0232B09F0789408952F923F924F92E4
:102930005F926F927F928F929F92AF92BF92CF924F
:10294000DF92EF92FF920F931F93CF93DF933C019F
:10295000660E771EF301828193814C01B12CA12C6C
:10296000C0914B04D0914C04209769F021E030E0F5
:1029700060914D0470914E048617970710F030E077
:1029800020E0232BD1F482E090E0FA019183808350
:102990008EEF9FEFDF91CF911F910F91FF90EF90FE
:1029A000DF90CF90BF90AF909F908F907F906F906F
:1029B0005F904F903F902F90089580922B029092BD
:1029C0002C02A0922D02B0922E0263E1689F90012A
:1029D000699F300D1124C20FD31FF3018181833011
:1029E00040F082E090E0FA019183808386EF9FEFD0
:1029F000D1CF2A012B813C81232BF1F4288139810D
:102A00009F8191FF2EC0232B09F46FC020915004A9
:102A10009A81422F490F5527551FBA0141E050E0D6
:102A20006138710514F050E040E0452B09F45DC0B9
:102A30002A87920F909350048150823008F481C00D
:102A400066DF882309F4DAC0F3018181813009F45B
:102A50008DC008F47BC0823009F4C8C090E080E0EB
:102A6000ADC0232B09F441C020914F049A81E22F7D
:102A7000E90FFF27FF1F41E050E0ED3FF10514F0A3
:102A800050E040E0452B89F12A87920F90934F0444
:102A9000D3CFA081B181A20FB31F11966C91060F05
:102AA000111D0196295F3F4F8417950794F38D857B
:102AB0009E85089F1001099F300C189F300C11242F
:102AC000C114D104D1F48F8184FF17C00E940C1E61
:102AD000F5E02F0E311C21E08215930508F420E06B
:102AE000A701455F5F4F21110EC082E090E0F20127
:102AF0009183808387EF9FEF4DCF0E940C1E2FEFB5
:102B0000221A320AE8CF88819981E80EF91EF7016E
:102B100014830383FFEFCF1ADF0A7A018A818C15B1
:102B20001D0409F00CF48CCFE881F981EE0DFF1D36
:102B3000428150E030E020E010E000E090E080E0F2
:102B4000B3CFF12CE12CD12CC12CE8CF81E090E067
:102B50009C838B83DDDA882309F480CF81E090E0C9
:102B60000E94050D80E40E94130D78CF89899A890F
:102B7000019661F083E090E09C838B8382E090E09B
:102B80000E94050D80E40E940D0D68CF8D819E810D
:102B9000209121023091220282179307D1F4609193
:102BA000250270912602AE014F5E5F4F8091230295
:102BB000909124020E9462200097E1F2789422E032
:102BC00030E0F20131832083892BA9F08DEF9FEF54
:102BD000E1CE22E082169104A104B1045CF60397D1
:102BE00048F6CE0142DE188A1F86E6CF82E090E0EA
:102BF0009C838B8333CF90E080E0CCCE82E090E06A
:102C0000F2019183808385EF9FEFC4CE8F929F92D4
:102C1000AF92BF92CF92DF92EF92FF920F931F93EA
:102C2000CF93DF93EA018C01060F171FF801818112
:102C3000833098F082E090E09983888386EF9FEF5D
:102C4000DF91CF911F910F91FF90EF90DF90CF9088
:102C5000BF90AF909F908F90089580914B0490917A
:102C60004C04892B61F081E090E020914D0430917B
:102C70004E04232B11F490E080E0892B39F482E09C
:102C800090E0998388838EEF9FEFDACF40DE882330
:102C900009F4E1C0F8018181813009F497C0E8F0BE
:102CA000823099F420914D0430914E04E0914B0410
:102CB000F0914C0490E080E041E050E028173907A3
:102CC00009F0BFC025DA811117C0789481E090E047
:102CD0009983888390E080E0B3CF20914D043091B8
:102CE0004E04E0914B04F0914C0490E080E041E010
:102CF00050E02817390741F481E090E00E94050D6B
:102D000080E40E94130DE1CF63817481672B11F081
:102D10005483438301967396ECCFE0914B04F0917A
:102D20004C04E00FF11F2381348122303105D9F4A6
:102D3000218932892F3F3F4FB1F42581368140915F
:102D40002102509122022417350761F5AF014F5E31
:102D50005F4F60912502709126028091230290912D
:102D600024020E946220EFEFCE1ADE0AEE0AFE0A6B
:102D70000D5E1F4F40914D0450914E0470E060E095
:102D8000C416D506E606F7064CF5009731F278949E
:102D9000892B09F49BCF82E090E0998388838DEFA3
:102DA0009FEF4ECF42E0C416D104E104F104DCF6FB
:102DB00023303105C0F6CF0158DDE0914B04F0918E
:102DC0004C04E00FF11F108A1786CDCF10E000E011
:102DD00090E080E0C12CD12C7601CCCF0097B9F6E1
:102DE00010E000E0812C912C540183E0E82EF12CBE
:102DF0001AC0E0914B04F0914C04E00FF11F838165
:102E00009481029749F4F482E38282E090E00E9488
:102E1000050D80E40E940D0DFFEF8F1A9F0AAF0A87
:102E2000BF0A0D5E1F4F80914D0490914E04B0E09B
:102E3000A0E088169906AA06BB06DCF290E080E0C6
:102E4000A6CF638174816230710511F4548343838A
:102E50000196739633CF82E090E09983888385EF63
:102E60009FEFEECE0097B9F48FEFFB0180832091A6
:102E70002B0230912C0243E1429FC001439F900DF1
:102E80001124E0914B04F0914C04E80FF91F828566
:102E9000FB01818308950C94BC0C88E090E0FA015A
:102EA0009183808390E080E0089510924A0410920C
:102EB0004904EBE4F4E086E0DF011D928A95E9F72E
:102EC00088EB92E1909348048093470408958091A1
:102ED00047049091480408952F923F924F925F9239
:102EE0006F927F928F929F92AF92BF92CF92DF921A
:102EF000EF92FF920F931F93CF93DF93CDB7DEB77F
:102F000060970FB6F894DEBF0FBECDBFF894E09186
:102F10004904F0914A043196F0934A04E09349043D
:102F20007894A0914B04B0914C04BA83A983109774
:102F300009F4FAC1E0914D04F0914E04EF2B09F42D
:102F4000F3C128874B875C876D877E879A8789873F
:102F5000B88BAF87312C212CF12C512C412C809136
:102F60004D0490914E042816390610F4FF2029F1E3
:102F7000F8948091490490914A04019790934A04EF
:102F8000809349047894C20160960FB6F894DEBF2E
:102F90000FBECDBFDF91CF911F910F91FF90EF90AA
:102FA000DF90CF90BF90AF909F908F907F906F9069
:102FB0005F904F903F902F900895B10190E080E096
:102FC00089D4682EEF85F889878181FD3DC0838192
:102FD00094810397C9F5258136813C832B838985AC
:102FE0009A852817390781F5C101DCD8782E882306
:102FF000A9F1AF85B8891F968D919C915097019644
:1030000021E01D964D915C918417950709F020E011
:103010002F83B12CA12CEF85F88982818A151B049E
:1030200019F014F0FF20E9F0F885FF2309F46CC1D2
:10303000AF85B88950961C921E921F97662021F08A
:10304000B10190E080E048D4FFEF2F1A3F0A2F85AE
:1030500038892D5E3F4F388B2F8781CFB1E0BF83FA
:10306000D8CFC1D49E838D83E885EE23E9F0772005
:1030700009F43CC1AF85B8891F968D919C91892B2D
:1030800079F0BBE0BA9DC001BB9D900D1124AF85C6
:10309000B889ED91FC91E80FF91F85819681F4D6EE
:1030A000BFEFAB1ABB0AB7CF81E0772039F0EF85CD
:1030B000F88927853089232B09F080E0F82EE12C50
:1030C000A114B10439F4AF85B8891796EC90E4FAED
:1030D000EE24E0F8BBE0BA9D6001BB9DD00C11244A
:1030E000882309F424C1AF85B889ED91FC9111972B
:1030F000EC0DFD1D438154811D962D913C91429F05
:10310000C001439F900D529F900D1124E1105DC0AE
:1031100001969087878361E070E0878190852ED546
:10312000EF85F88921893289008111810C0D1D1DDF
:103130002F3F320709F44BC0BC01C9010E94A320F4
:10314000D80116969C938E931597AF85B889ED910B
:10315000FC911197EC0DFD1D0581168101151105DE
:1031600009F4CDC0ED81FE810E0F1F1F1A968C91C0
:103170008A0DD8018C93E1102FC00F5F1F4FAF85D0
:10318000B889ED91FC91EC0DFD1D12870187AF858B
:10319000B889ED91FC91EC0DFD1D85819681892BFF
:1031A00009F4A4C080912102909122022B813C81DC
:1031B0002817390709F465C0772011F001851285B9
:1031C000912C812C1A8219824AC00596A2CF23D64F
:1031D000F80196838583B9CF8B859C85AD85BE85A7
:1031E000F80181839283A383B4830B5F1F4FC7CF02
:1031F000E080F180E80CF91CD70113966D917C9169
:1032000014978C918F3F09F473C0E1E0F0E002C0A5
:10321000EE0FFF1F8A95E2F7CF01092E000CAA0BD3
:10322000BB0BFB0140815181628173818423952313
:10323000A623B72321E0892B8A2B8B2B09F420E0CE
:10324000D8012C93D70111968C91080F111DE9819B
:10325000FA813196FA83E983F7E08F0E911CAF85EE
:10326000B889ED91FC91EC0DFD1D828129813A8197
:103270008217130611F00CF0BBCF772011F01287E4
:1032800001873F81332391F1AF85B889ED91FC919E
:10329000EC0DFD1D61E070E0878190856FD4AF85F6
:1032A000B889ED91FC91EC0DFD1DE780F08445811E
:1032B0005681E1E0F0E0662011F0F0E0E0E00D8101
:1032C0001E819C01B101882799278E1B9F0B8ED3ED
:1032D0002C01892B59F0EF85F88980819181C80EE6
:1032E000D91ED60115968D919C91CED5F12CD8CEB4
:1032F000F701418150E0C8010E940434A3CF86EF5A
:10330000482E55245A94CCCEEF85F889878590892C
:103310000196908B8787258536858217930709F05C
:103320008DCE108A17868ACE512C412C21CE10E0EA
:1033300000E02DCF2F923F924F925F926F927F923B
:103340008F929F92AF92BF92CF92DF92EF92FF92B5
:103350000F931F93CF93DF9380914B0490914C0474
:1033600010E000E0892BA9F0D2DA0AEF1FEF8823E2
:1033700081F020904D0430904E04C0914B04D091C8
:103380004C04D12CC12C10E000E02C143D04A9F415
:103390007894C801DF91CF911F910F91FF90EF902A
:1033A000DF90CF90BF90AF909F908F907F906F9065
:1033B0005F904F903F902F900895C6010E94D210C9
:1033C000882309F18B819C810397E9F48F85988983
:1033D000892BC9F0B60190E080E07CD221E030E09A
:1033E000882311F030E020E044245524421A530A87
:1033F000B12CA12C912C812C8A818815190409F0FB
:1034000038F4188A1F864FEFC41AD40A6396BDCFCA
:10341000E881F981EA0DFB1D85819681892BA1F157
:1034200061E070E087819085A9D33C01DCD28C01FA
:10343000E881F981EA0DFB1D818592852581368120
:10344000200F311FAC01421B530B9A01478150855D
:10345000421B530B70E060E00E940D34E881F9815B
:10346000EA0DFB1DE780F084458156819301B6018A
:10347000C201BCD28C01892B39F0E881F981EA0DB7
:10348000FB1D8581968100D55FEF851A950A8BE03B
:10349000A80EB11CB1CF3BCA789408952F923F92E9
:1034A0004F925F926F927F929F92AF92BF92CF9214
:1034B000DF92EF92FF920F931F93CF93DF9300D091
:1034C00000D0CDB7DEB700914B0410914C04992485
:1034D00093940115110509F43EC0A0904D04B090DD
:1034E0004E0415DA982E8823B1F110924C041092F4
:1034F0004B0410924E0410924D0410924F041092FF
:1035000050048FEF9FEFDC0180932B0290932C02ED
:10351000A0932D02B0932E02789480D31E830D8346
:10352000C12CD12C7601C501B0E0A0E089839A833B
:10353000AB83BC8322242A94322C89819A81AB816B
:10354000BC81C816D906EA06FB06F4F0C8019CD473
:1035500080E40E94130D892D26960FB6F894DEBFE5
:103560000FBECDBFDF91CF911F910F91FF90EF90D4
:10357000DF90CF90BF90AF909F907F906F905F90C3
:103580004F903F902F900895AD81BE8115968D91FB
:103590009C91169720912102309122028217930765
:1035A000D1F451968D919C91BCD5ED81FE818081A5
:1035B0009181B12CA12C412C512C3201892B91F5F8
:1035C000BFEFCB1ADB0AEB0AFB0AED81FE81739693
:1035D000FE83ED83B2CFB2E0CB16D104E104F10457
:1035E00024F7039710F7ED81FE81818992898F3F3F
:1035F000980709F011D5AD81BE8152963C922E926A
:103600005197D3CF8A0D9B1DDC018D919C91009722
:1036100009F03AD4BFEF4B1A5B0A6B0A7B0AEBE066
:10362000AE0EB11CAD81BE818D919C911197129609
:103630004C9150E070E060E044165506660677064F
:103640000CF322D4BDCFCF93DF93EA0127DF8111A2
:1036500009C082E090E09983888385EF9FEFDF9136
:10366000CF91089581E090E00E94050D81E090E007
:103670009983888390E080E0F2CF10DF10924804B5
:1036800010924704089542E050E068EC72E00C9418
:10369000230DFF920F931F93CF93DF938A01EC01C9
:1036A000C60FD71FF980B9D20897F816190671F01E
:1036B00068F082E090E0F801918380838EEF9FEFC5
:1036C000DF91CF911F910F91FF9008956C817D81C3
:1036D0008E819F814B810E94B80F811108C082E0CA
:1036E00090E0F8019183808384EF9FEFE9CFF98028
:1036F0000E94B30F4F2D50E0BE01685F7F4F0E94C4
:10370000043489810E94221081E090E0F8019183C5
:10371000808390E080E0D4CFDF92EF92FF920F930E
:103720001F93CF93DF938A01EC01C60FD71F0E942E
:10373000B30F7C01D98071D2DD2059F0029721E0CE
:1037400030E0D816190619F010F030E020E0232BF5
:1037500079F482E090E0F801918380838EEF9FEF0F
:10376000DF91CF911F910F91FF90EF90DF9008951F
:10377000EF2841F482E090E0F8019183808384EFA8
:103780009FEFEECFF9800E94B30F4F2D50E0BE01A6
:103790006E5F7F4F0E94043489810E94221081E075
:1037A00090E0F8019183808390E080E0D9CF83E4BA
:1037B0009BE19093520480935104089580915104A9
:1037C0009091520408950895FC0111821082938310
:1037D00082830895DB011D921C92DC011296ED910B
:1037E000FC9113977183608313967C936E93129769
:1037F0000895FC0180819181DB018D939C93A081D0
:10380000B181109741F08D919C9191838083892B98
:1038100011F4F383E2830895FC0180819181DB013F
:103820008D939C93892B11F47383628371836083DE
:103830000895FC0111821082938382830895CF93AF
:10384000DF931F921F92CDB7DEB71A821982F894C8
:10385000BE016F5F7F4F88E594E0CBDF89819A815D
:10386000009709F011D389819A81892B89F7BE01CC
:103870006F5F7F4F8CE594E0BCDF89819A81009770
:1038800009F002D389819A81892B89F778940F9066
:103890000F90DF91CF910895CF93DF931F921F92E6
:1038A000CDB7DEB71A821982F894BE016F5F7F4FE1
:1038B00084E594E09EDF89819A81009709F0E4D243
:1038C00089819A81892B89F778940F900F90DF91E5
:1038D000CF91089581E0089590E080E00895EF92FF
:1038E000FF920F931F93CF93DF931F921F92CDB739
:1038F000DEB71A8219828091530407EF1FEF8823E5
:10390000A1F1F894BE016F5F7F4F8CE594E071DF09
:10391000789489819A81EE24E394F12C892B51F4D7
:10392000F894BE016F5F7F4F88E594E062DF789482
:10393000F12CE12C89819A810EEF1FEF0097A9F0FD
:10394000FC014281538164E070E043D68C01892BF5
:1039500061F0F89469817A81C701880F991F880FF7
:10396000991F885A9B4F58DF7894C8010F900F9089
:10397000DF91CF911F910F91FF90EF9008950F93DA
:103980001F93CF93DF9300D01F92CDB7DEB71C8279
:103990001B821A8219828091530407EF1FEF88233C
:1039A000C1F0AE014D5F5F4F64E070E0CE01019663
:1039B00083D68C01892B69F4E981FA818B819C8102
:1039C00093838283F89469817A8184E594E002DFAD
:1039D0007894C8010F900F900F900F90DF91CF91C6
:1039E0001F910F91089588D7049608958F929F9202
:1039F000AF92BF92CF92DF92EF92FF920F931F93FD
:103A0000CF93DF931F921F92CDB7DEB71A82198230
:103A1000BC016F5F7F4F6330710598F0AA24AA94B0
:103A2000BA2CC5010F900F90DF91CF911F910F918C
:103A3000FF90EF90DF90CF90BF90AF909F908F90CE
:103A400008954115510551F3480159018A016C014E
:103A5000CADF8815990511F7E114F104F9F28E0D0A
:103A60009F1DA816B906D0F2809153048823F1F067
:103A7000F894B501645071099701AE014F5F5F4F33
:103A8000C8010496AED65C01892B71F489819A81B4
:103A9000F80193838283C601880F991F880F991FAD
:103AA000B801885A9B4F96DE7894BBCF87EFA82E3B
:103AB000BB24BA94B6CFAF92BF92CF92DF92EF926F
:103AC000FF920F931F93CF93DF931F921F92CDB757
:103AD000DEB71A821982892B09F047C0611571057A
:103AE00009F443C04115510509F43FC021153105C2
:103AF00009F43BC001151105C1F1809153048823DD
:103B0000B9F179016A015B01F894BE016F5F7F4FE3
:103B100084E594E06EDE789489819A81009759F16A
:103B2000DC0112966D917C91A801049673D68C01EC
:103B3000E981FA81D501ED93FC938281938104960A
:103B4000F601918380834FDFD7018D939C93C80149
:103B50000F900F90DF91CF911F910F91FF90EF90F9
:103B6000DF90CF90BF90AF9008950FEF1FEFEFCF92
:103B700007EF1FEFECCF0EEF1FEFE9CFCF93DF93EF
:103B8000EC01672B71F4C1D68C179D0760F0B4D699
:103B90002496C80FD91FB3D68C0F9D1FDF91CF91EC
:103BA0000895B0D6F1CF90E080E0F8CF0F931F9347
:103BB000CF93DF932091530421112BC08B01EC0193
:103BC00088E594E001DE8CE594E0FEDD84E594E098
:103BD000FBDD97D00097C1F498D670E060E0CEDFAF
:103BE0004FE252E062E070E07BD1009769F480918F
:103BF0002F02909130029BD6B801CE01D0D400970D
:103C000019F421E020935304DF91CF911F910F917C
:103C1000089584EF9FEFF8CF75C677C6CF93DF93F3
:103C200077D6EC01892B11F40ADE36DECE01DF9166
:103C3000CF910895CF93DF936BD6EC01892B09F4D4
:103C4000FEDDCE01DF91CF91089580912F029091FA
:103C500030020895CF93DF9380915304D0E0C0E009
:103C60008823D1F069D6EC01892BB1F4E8DD14DEAC
:103C700080912F0290913002CFD1B5D2EC01892BE7
:103C800059F488E594E0D5DD8CE594E0D2DD84E557
:103C900094E0CFDD10925304CE01DF91CF910895CF
:103CA000EF92FF920F931F93CF93DF93EC017A0172
:103CB0008B010F5F1F4F0E9DA0010F9D500D1E9D8C
:103CC000500D112470E060E00E940D3490E080E01F
:103CD000F0E0E0E02FEFE816F90639F4DF91CF913C
:103CE0001F910F91FF90EF9008951A8219822883F7
:103CF000309711F0D283C1830196FE01C00FD11F0E
:103D0000EACFAF92BF92CF92DF92EF92FF920F93E2
:103D10001F93CF93DF9382EC95E07C012CEFE2229E
:103D200043E050E061E372E087E392E0E5D381E3B2
:103D3000C82E82E0D82E97E3A92E92E0B92ECBE7C9
:103D4000D6E08E01D6014D915D916D01F501619135
:103D500071915F01D8011196FC92EE9215965C93D9
:103D60004E93149713965C934E93129717967C93E9
:103D70006E9316979B012F5F3F4F249FC001259F95
:103D8000900D349F900D112419969C938E93189743
:103D9000E114F10411F0C70183DFF80180859185FA
:103DA000E80EF91E065F1F4FF7E3CF16F2E0DF06BD
:103DB00049F6E2E6F4E08DE591E0DF019C011D9219
:103DC00021503040E1F710926104109260041F8E80
:103DD0001E8E1BA21AA219A218A21DA21CA21FA20B
:103DE0001EA22A9636E0C939D30789F710927806C1
:103DF0001092770610927A061092790690E080E091
:103E0000DF91CF911F910F91FF90EF90DF90CF90B6
:103E1000BF90AF9008950097F1F0F894A7E3B2E057
:103E2000EBE7F6E030E020E04D915D91481759074F
:103E3000A8F0428153814115510581F08AE0829FAB
:103E4000F001839FF00D1124E558F94F8081918195
:103E5000009759F4789490E080E008952F5F3F4FE9
:103E60003A962330310501F7F5CFDC0111966D91BB
:103E70007C91718360834150510953834283FC01DB
:103E80002193CF0178940895009749F1DC018E9138
:103E9000863041F4E0917906F0917A063097F9F096
:103EA000CD0119948630D8F4282F30E0F8948FEFA4
:103EB0008C938AE0829FF001839FF00D1124E558D6
:103EC000F94F8081918112969C938E931197B183C3
:103ED000A08382819381019693838283789408954D
:103EE000CF92DF92EF92FF920F931F93CF93DF93C6
:103EF0009C0185E694E08C7F4115510509F489C049
:103F00002115310509F485C06115710509F481C0D9
:103F10008A01AB01B9016D5F7F4F6C7F9B012F5F01
:103F20003F4F249F7001259FF00C349FF00C11240B
:103F3000F894EBE7F6E023E030E0E901A6A1B7A1B1
:103F4000C68CD78CCD2809F058C0109709F03EC018
:103F5000C0906004D09061042AE531E02C193D093D
:103F60002E153F0530F47894CFEFDFEF86EF9FEF0B
:103F700021C02AE02C9FF0012D9FF00D1124E5585F
:103F8000F94F91838083558344835383428377839E
:103F90006683F186E086009709F082DEEC0CFD1C5A
:103FA000F0926104E09260047894CF3FDC07F1F274
:103FB00090E080E0F801D183C083DF91CF911F9121
:103FC0000F91FF90EF90DF90CF900895AE15BF0551
:103FD000A0F02AE02C9FF0012D9FF00D1124E55850
:103FE000F94F91838083558344835383428377833E
:103FF00066830097C9F254DED7CF8A0F9B1F2F5FCD
:104000003F4F3A962630310509F097CFCFEFDFEFDB
:10401000CBCF8FEF9FEFD1CF9C010397039708F091
:104020004EC0F89485E09AE0482F50E024173507F9
:104030009CF191E08AE0829FF001839FF00D1124B2
:10404000E558F94F11821082158214821382128270
:10405000178216829923E1F08091600490916104A7
:10406000EBE7F6E0268D378D232B49F426A137A107
:104070002115310521F0821B930B17A216A23A9647
:1040800026E0E939F20771F79093610480936004A8
:10409000789490E080E00895949FF001959FF00D52
:1040A0001124E558F94F40815181452B31F4408569
:1040B0005185452B11F48150B7CF90E0BBCF8FEFE6
:1040C0009FEF08954115510549F1009739F16115A8
:1040D000710521F1F8942091770630917806232B11
:1040E000B9F42091790630917A06232B89F49093C4
:1040F00078068093770670937A06609379067894B1
:1041000026E030E090E080E0FA01318320830895DA
:1041100078942FEF3FEF86EF9FEFF6CF8FEF9FEF73
:104120000895069769F4F89410927806109277062D
:1041300010927A0610927906789490E080E00895C3
:104140008FEF9FEF08956115710519F4F0E0E0E03D
:1041500011C08630910581F4E0917706F0917806E0
:104160003097A1F3CB0101961995009779F3FC01E3
:1041700086E08193CF0108959C01235031092330BB
:10418000310520F72AE0289FD001299FB00D112486
:10419000A558B94F2D913C911197232BB9F2169642
:1041A0002D913C9117972617370780F2F8941296B5
:1041B0002D913C9113972115310529F0ED91FC913A
:1041C0001197309711F47894C1CF418152811196A3
:1041D0005C934E932150310913963C932E93129782
:1041E00081937894C7CFEFEBF5E088EBDF011D9268
:1041F0008A95E9F7E2E6F4E08DE591E0DF019C01C4
:104200001D9221503040E1F7109261041092600439
:10421000EBE7F6E08CE3DF011D928A95E9F7E7E72B
:10422000F6E084E0DF011D928A95E9F790E080E0F6
:104230000895CF93DF93C0913D02D0913E02CF3FCE
:10424000DC0759F424D490933E0280933D0297FFFB
:1042500009C0D0933E02C0933D0284EF9FEFDF91EF
:10426000CF91089590E080E0FACF8230910528F454
:104270008093B70690E080E008958FEF9FEF089558
:104280004F925F926F927F92AF92BF92CF92DF92E6
:10429000EF92FF920F931F93CF93DF931F921F9282
:1042A000CDB7DEB71A821982009709F479C061157B
:1042B000710509F475C020913D0230913E0207EF6F
:1042C0001FEF2F3F3F4F09F445C06B015C01412CAC
:1042D000512C3201F12CE12C10E000E09E012F5F07
:1042E0003F4FA6014E195F09B5016E0D7F1D8091EC
:1042F0003D0290913E022FD4892B09F04BC0898159
:104300009A81009741F4E114F10429F42091B70651
:10431000222309F442C0E80EF91EEC14FD04D0F487
:1043200080E8481684E858068EE16806710420F596
:1043300060E070E0CB010E940E2F2AE0420E511C7B
:10434000611C711C0A3F4FEF140721F0043F8FEFEF
:104350001807A1F4C8010F900F90DF91CF911F9122
:104360000F91FF90EF90DF90CF90BF90AF907F9034
:104370006F905F904F90089501EF1FEF81E090E004
:10438000013F2FEF120711F090E080E0892B09F434
:10439000A5CFE0CF04EF1FEFDDCF0AEF1FEFDACF9D
:1043A0000FEF1FEFD7CF4F925F926F927F92AF9236
:1043B000BF92CF92DF92EF92FF920F931F93CF9312
:1043C000DF931F921F92CDB7DEB71A821982009732
:1043D00009F479C06115710509F475C020913D0299
:1043E00030913E0207EF1FEF2F3F3F4F09F445C0CA
:1043F0006B015C01412C512C3201F12CE12C10E0BD
:1044000000E09E012F5F3F4FA6014E195F09B501E5
:104410006E0D7F1D80913D0290913E024FD3892BFE
:1044200009F04BC089819A81009741F4E114F104AD
:1044300029F42091B706222309F442C0E80EF91EA0
:10444000EC14FD04D0F480E8481686E9580688E9A3
:104450006806710420F560E070E0CB010E940E2F29
:104460002AE0420E511C611C711C0E3F4FEF1407D5
:1044700021F0043F8FEF1807A1F4C8010F900F90AF
:10448000DF91CF911F910F91FF90EF90DF90CF9030
:10449000BF90AF907F906F905F904F90089502EF24
:1044A0001FEF81E090E0023F2FEF120711F090E044
:1044B00080E0892B09F4A5CFE0CF04EF1FEFDDCF1B
:1044C0000EEF1FEFDACF0FEF1FEFD7CF80913D0236
:1044D00090913E028F3F980749F0D0D2892B49F442
:1044E0008FEF9FEF90933E0280933D0290E080E03B
:1044F000089584EF9FEF0895CF92DF92EF92FF929D
:104500000F931F93CF93DF9321E04115510509F0DD
:1045100020E04150510921112CC0DC01FB01D12CBC
:10452000C12C21E022C03FEFC31AD30A7D010D91B7
:104530001D91E701EA80FB80E016F106A8F42081D6
:104540003181E280F380F182E08233832283ED9037
:10455000FC9011979D0122503109E901F982E8820E
:1045600011961C930E9320E03296C416D506D8F20D
:10457000D2CFDF91CF911F910F91FF90EF90DF90FD
:10458000CF900895FC01680F791F90E080E0E61756
:10459000F70709F408952191820F911DF8CF20911A
:1045A000B806211113C045DE009791F41092BE06A3
:1045B0001092BD061092BC061092BB061092BA066D
:1045C0001092B90621E02093B806089584EF9FEF7A
:1045D0000895AF92BF92CF92DF92EF92FF920F9326
:1045E0001F93CF93DF93009709F460C046305105C5
:1045F00008F45CC02091B806C7EFDFEF222309F46E
:1046000049C08C01060F171FF801C080D180C1146A
:10461000D10409F44EC096012A5F3F4F4217530759
:1046200008F447C07C018091BD069091BE0693833B
:104630008283B6016C5F7F4F5801A60EB71EC8017A
:10464000A1DFF5019183808364E070E0C80118DE8A
:10465000EC01892BF9F481E090E007DEB601C80196
:1046600004960EDEEC01892B91F462E070E0C50146
:1046700007DEEC01892B59F4C70106DC8091BD06E9
:104680009091BE0601969093BE068093BD0690E081
:1046900080E0EBDDCE01DF91CF911F910F91FF9074
:1046A000EF90DF90CF90BF90AF900895CFEFDFEF06
:1046B000F1CFC9EFDFEFEECF6F927F928F929F9293
:1046C000AF92BF92CF92DF92EF92FF920F931F9320
:1046D000CF93DF9300D01F92CDB7DEB7009709F4D8
:1046E0007AC04115510509F476C02091B80607EF4C
:1046F0001FEF222309F44DC03A017B015C0164E005
:1047000070E0CE0101964FDE8C01892B09F041C08B
:1047100009811A810115110509F45AC0480186E082
:10472000880E911CB701680D791D80913F02909110
:10473000400209DD6C01009709F450C0A70170E048
:1047400060E00E940D3489819A81AB81BC81EC0CC0
:10475000FD1CF70181939193A193B1937F0181E0B7
:1047600090E083DDB801C7011EDE892B31F562E0E0
:1047700070E0C701800F911F16DE8C01892BE9F4D0
:1047800090E080E072DDF501D182C082F301918278
:104790008082C8010F900F900F900F90DF91CF9102
:1047A0001F910F91FF90EF90DF90CF90BF90AF904F
:1047B0009F908F907F906F90089590E080E055DDFE
:1047C000F50111821082F30111821082C6015CDBB7
:1047D00009EF1FEFDECF0FEF1FEFDBCF06EF1FEF6D
:1047E000D8CF0097A1F04115510589F02115310569
:1047F00071F0F90136966E177F0748F0DC012D93B2
:104800003C93DA01ED93FC9390E080E008958FEF04
:104810009FEF0895AF92BF92CF92DF92EF92FF92F7
:104820000F931F93CF93DF93009709F45FC0411557
:10483000510509F45BC06530710508F457C020913B
:10484000B806C7EFDFEF222391F1DC01CD90DC90B9
:1048500011971296ED91FC9196012A5F3F4FC9EF97
:10486000DFEF2617370719F5C091B906D091BA06C0
:10487000209749F521E030E03093BA062093B9063D
:104880007A018C01F093BC06E093BB065601B4E0BC
:10489000AB0EB11CB50176DE0A0D1B1DF80120819F
:1048A00031818217930729F5D701CD92DC92CE0191
:1048B000DF91CF911F910F91FF90EF90DF90CF90FC
:1048C000BF90AF9008952091BB063091BC062F5F3A
:1048D0003F4FCCEFDFEFE217F30790F2CBEFDFEFC4
:1048E0002E173F0768F2D0E0C0E0CACFCFEFDFEF6E
:1048F000DECFC3EFDFEFDBCF84E090E0089582E00E
:1049000090E008958CEF9FEF089580E290E0089585
:104910001092BE061092BD061092BC061092BB0605
:104920001092BA061092B90690E080E00895909334
:10493000400280933F0208958091B806882391F049
:10494000C5DD009789F41092BE061092BD06109244
:10495000BC061092BB061092BA061092B9061092CD
:10496000B806089590E080E00895009749F0611539
:10497000710531F0FC0111821082FB01118210825D
:104980000895F3CF26E030E040E855E260E070E0C3
:1049900090E080E000C08130910571F01CF4892B1B
:1049A00039F008958230910551F0039759F0089538
:1049B0008BE997E00C94033188E398E0FBCF85ED19
:1049C00098E0F8CF82E799E0F5CF1F920F920FB6EB
:1049D0000F9211240BB60F922F933F934F935F9337
:1049E0006F937F938F939F93AF93BF93EF93FF93B7
:1049F00086E09FEF9093250180932401C0D0FF9122
:104A0000EF91BF91AF919F918F917F916F915F9146
:104A10004F913F912F910F900BBE0F900FBE0F90B3
:104A20001F90189586E09FEF9093250180932401B5
:104A3000A3E7B0E08C918E7F8C93E0E2F1E080817F
:104A40008C7F8083E1E2F1E08081877E80838081BA
:104A50008360808380818B7F80838C9181608C9345
:104A60000895E3E7F0E0808190819E7F90838170DC
:104A7000089581E008951092BF06089568EE73E0EE
:104A800080E090E00E940E2F90E080E0089526E004
:104A900030E040E050E16EE070E090E080E07BDFED
:104AA0008BE997E00E943930892B29F08BE997E058
:104AB0000E945330F5CF90E080E00895CF92DF92CE
:104AC000EF92FF920F931F93CF93DF936B017A01C5
:104AD000E901198218828BE997E00E943930892B0D
:104AE00079F18601CC24C39482E0D82E8091BF0650
:104AF000811111C08BE997E00E9453300297B1F702
:104B0000C092BF06F801D1928F01888199810196E8
:104B100099838883EBCF888199818E159F0580F4D6
:104B20008BE997E00E9453308F3F9807A1F3F8017B
:104B300081938F0188819981019699838883EBCF36
:104B400090E080E0DF91CF911F910F91FF90EF9067
:104B5000DF90CF9008950F931F93CF93DF93EA01D7
:104B600089018BE997E00E949333F801D183C083D8
:104B700090E080E0DF91CF911F910F910895CF9247
:104B8000DF92EF92FF920F931F93CF93DF9300D0AA
:104B9000CDB7DEB78091C30691E0980F9093C3061E
:104BA0008823A1F021E030E03093C7062093C606A9
:104BB0008093C3060F900F900F90DF91CF911F91BC
:104BC0000F91FF90EF90DF90CF900895CE01019666
:104BD0000E949F0378940091540210915502F801AD
:104BE000E856FF4FC080D180E280F3800E94A70387
:104BF000B701A60181E090E00E941103F894809132
:104C0000C30681508093C3068B81882389F08091ED
:104C1000C20691E0980F9093C206882349F021E0E4
:104C200030E03093C7062093C6068093C206C2CFF9
:104C30008091C206882309F4BDCF8091C4068111FA
:104C4000B9CF8091C5068F5F8093C5067894F8012F
:104C5000EC55FF4F2081318142815381AAE0B0E0C1
:104C60000E94EB336B017C010E947C04B701A6011A
:104C700082E090E00E941103F8948091C206815076
:104C80008093C2068091C50681508093C50692CF5D
:104C90000F931F93CF93DF931092510A1092500AF3
:104CA0000E94442F6FDEC0915402D09155021982A8
:104CB00018826FEF7FEFCB010E94940370E060E0F9
:104CC00090E080E00E941102009709F042C00E942B
:104CD0000305F8947894BE0165557F4F8A819B81C6
:104CE0000E941402892B71F46FEF7FEFCB010E94B9
:104CF000A7020E948E03882329F081E0FE01EF5471
:104D0000FF4F8083F8948EDE0E949103882311F078
:104D100080E00BC00E948E038111FACF81E0FE017A
:104D2000EF54FF4F90819111F3CF8093500A789404
:104D30000E94000D8C017894CF54DF4F8091500A6F
:104D400081110CC00E940A060E947303F89490E03F
:104D500080E0DF91CF911F910F9108950E94710320
:104D60000E9491038823D9F081E08093510A9091A9
:104D7000510A81E0911180E08093500A8091510A9C
:104D800081116FDE0130110529F40E94000D892B7D
:104D900009F471DE0E94000D8C016BDECFCF0E9402
:104DA0008E038111E1CF81E098819111DECF80E007
:104DB000DCCF5058BB27AA270ED092C183D130F048
:104DC00088D120F031F49F3F11F41EF478C10EF425
:104DD000E095E7FB45C1E92F94D180F3BA1762074C
:104DE00073078407950718F071F49EF5C3C10EF49C
:104DF000E0950B2EBA2FA02D0B01B90190010C01EB
:104E0000CA01A0011124FF27591B99F0593F50F402
:104E1000503E68F11A16F040A22F232F342F44275A
:104E2000585FF3CF469537952795A795F040539552
:104E3000C9F77EF41F16BA0B620B730B840BBAF022
:104E40009150A1F0FF0FBB1F661F771F881FC2F78D
:104E50000EC0BA0F621F731F841F48F487957795A1
:104E60006795B795F7959E3F08F0B3CF9395880F58
:104E700008F09927EE0F979587950895CDD008F4FF
:104E800081E0089546D188F09F5790F0B92F992777
:104E9000B751A0F0D1F0660F771F881F991F1AF045
:104EA000BA95C9F712C0B13081F064D1B1E008956C
:104EB00061C1672F782F8827B85F39F0B93FCCF3ED
:104EC000869577956795B395D9F73EF4909580953B
:104ED000709561957F4F8F4F9F4F0895E89409C05B
:104EE00097FB3EF490958095709561957F4F8F4F1D
:104EF0009F4F9923A9F0F92F96E9BB279395F69533
:104F0000879577956795B795F111F8CFFAF4BB0FB0
:104F100011F460FF1BC06F5F7F4F8F4F9F4F16C014
:104F2000882311F096E911C0772321F09EE8872F9E
:104F3000762F05C0662371F096E8862F70E060E05A
:104F40002AF09A95660F771F881FDAF7880F9695D3
:104F5000879597F90895F7D080F09F3740F4911125
:104F60000EF009C160E070E080E89FEB089526F440
:104F70001B16611D711D811D79C093C0A3D018F04F
:104F800011F0A7D038F49BC0F6C0E92FBAD0B0F327
:104F90005523C9F3E7FB6217730784079507A8F148
:104FA00099F3E92FFF2788232AF03197660F771F9F
:104FB000881FDAF7952F5527442332F0915050403F
:104FC000220F331F441FD2F7BB27E91BF50B621BCF
:104FD000730B840BB109C1F222F4620F731F841F9B
:104FE000B11D31972AF0660F771F881FBB1FEFCFC7
:104FF000915050405AF041F0882332F0660F771FED
:10500000881F91505040C1F793954BC08695779576
:1050100067959F5FD9F7F8CF990F0008550FAA0B36
:10502000E0E8FEEF16161706E807F907C0F01216BB
:105030001306E407F50798F0621B730B840B950BBE
:1050400039F40A2661F0232B242B252B21F4089513
:105050000A2609F4A140A6958FEF811D811D0895B0
:1050600097F99F6780E870E060E00895882371F405
:10507000772321F09850872B762F07C0662311F4F1
:1050800099270DC09051862B70E060E02AF09A9528
:10509000660F771F881FDAF7880F9695879597F91F
:1050A00008959F3F31F0915020F48795779567954B
:1050B000B795880F911D9695879597F908959FEF5D
:1050C00080EC089500240A9416161706180609069F
:1050D000089500240A94121613061406050608956E
:1050E000092E0394000C11F4882352F0BB0F40F4F6
:1050F000BF2B11F460FF04C06F5F7F4F8F4F9F4F36
:10510000089557FD9058440F551F59F05F3F71F0B7
:105110004795880F97FB991F61F09F3F79F087951E
:105120000895121613061406551FF2CF4695F1DFA7
:1051300008C0161617061806991FF1CF8695710537
:10514000610508940895E5DFA0F0BEE7B91788F47B
:10515000BB279F3860F41616B11D672F782F88275C
:10516000985FF7CF869577956795B11D939596399A
:10517000C8F30895E894BB2766277727CB0197F9F2
:1051800008954ADF08F48FEF08950BD0A9CF9ADF76
:1051900028F09FDF18F0952309F062CF90CF1124FB
:1051A000EACFAFDFA0F3959FD1F3950F50E0551FE5
:1051B000629FF001729FBB27F00DB11D639FAA276C
:1051C000F00DB11DAA1F649F6627B00DA11D661FBB
:1051D000829F2227B00DA11D621F739FB00DA11DDC
:1051E000621F839FA00D611D221F749F3327A00D96
:1051F000611D231F849F600D211D822F762F6A2F32
:1052000011249F5750408AF0E1F088234AF0EE0FB6
:10521000FF1FBB1F661F771F881F91505040A9F7C3
:105220009E3F510570F01CCFA6CF5F3FECF3983E38
:10523000DCF3869577956795B795F795E7959F5F2A
:10524000C1F7FE2B880F911D9695879597F90895C4
:105250009F9305D00F9007FCEE5F28C030CF59DF39
:10526000E8F3E894E0E0BB279F57F0F02AED3FE039
:1052700049EC06C0EE0FBB0F661F771F881F28F092
:10528000B23A62077307840728F0B25A620B730BB5
:10529000840BE3959A9572F7803830F49A95BB0F9A
:1052A000661F771F881FD2F79048FDCEEF93E0FF6F
:1052B00006C0A2EA2AED3FE049EC5FEB8CDD10DF8F
:1052C0000F90039401FC9058E4EEF0E000C09F932F
:1052D0008F937F936F93FF93EF939B01AC0155DF07
:1052E000EF91FF9105D02F913F914F915F914DCF5D
:1052F000DF93CF931F930F93FF92EF92DF927B0187
:105300008C01689405C0DA2EEF014BDFFE01E894B2
:10531000A5912591359145915591AEF3EF015BDD56
:10532000FE019701A801DA9479F7DF90EF90FF90E2
:105330000F911F91CF91DF91089590E080E0089543
:105340008091FC069091FD06891B990B0895909120
:10535000FD068091FC062FEF3FEF981748F4E92FE8
:10536000F0E0E250F94F208130E09F5F9093FD061E
:10537000C9010895E091FD068091FC06E81730F41C
:10538000F0E0E250F94F808190E008958FEF9FEFB9
:1053900008950895CF93DF93EC01E091D406F09146
:1053A000D5063097F1F09091FD068091FC06981794
:1053B000C0F090E0292F30E02617370754F4DE01C3
:1053C000A20FB31F4C912250394FD9014C939F5FCC
:1053D000F1CF1092FD066093FC06CB01DF91CF91D7
:1053E0001994DF91CF910895E091D606F091D706F8
:1053F000309729F01092DA061092D9061994089580
:10540000CF93DF931F92CDB7DEB769832091D80683
:105410002223F9F02091D906203258F021E030E023
:10542000FC013383228390E080E00F90DF91CF91E5
:1054300008958091DA06E82FF0E0E552F94F99815E
:1054400090838F5F8093DA068093D90681E090E0A5
:10545000ECCF61E0CE01019607D1F8CFCF92DF9279
:10546000EF92FF920F931F93CF93DF937C01CB01B9
:105470008A012091D806222389F0EB016B01C40E2A
:10548000D51ECC15DD0561F06991D701ED91FC9138
:105490000190F081E02DC7011995F3CF642FE4D07E
:1054A000C801DF91CF911F910F91FF90EF90DF9096
:1054B000CF9008951092FD061092FC061092DA0625
:1054C0001092D90697D084EF99E2FAD08AEC99E24B
:1054D000F2C0CB01BA01B5C081E08093D8066093D9
:1054E000FB061092DA061092D90608950F93062F44
:1054F00021E04091D9066BED76E08091FB06DCD18E
:105500001092DA061092D9061092D8060F910895DB
:105510004F925F926F927F92AF92BF92CF92EF9233
:10552000FF920F931F93CF93DF935C01F62ED42F3E
:1055300028013901EE2009F1CFDFCE2DC43008F06B
:10554000C3E0C150B8F028E0C29FC0011124A301FC
:10555000920104C056954795379527958A95D2F7BD
:10556000B901D501ED91FC910190F081E02DC501CB
:105570001995E7CF60E0C501B9DF4D2FD13208F0B2
:1055800040E22C2D6EEF76E08F2DB9D01092FD0603
:105590008093FC06DF91CF911F910F91FF90EF90C8
:1055A000CF90BF90AF907F906F905F904F90089595
:1055B000CF92EF920F931F93C22EE12C00E010E0E8
:1055C0009801A6DF1F910F91EF90CF90089521E0F1
:1055D000EFCFE8ECF6E01382128288EE93E0A0E0D1
:1055E000B0E084839583A683B78388ED92E09183AE
:1055F000808308951092910781E080938F07109225
:105600008E0761E084E108D561E085E105D5E9EB2D
:10561000F0E080818E7F808380818D7F808388E42D
:105620008093B80085E48093BC000895ECEBF0E033
:1056300080818A7B808360E084E1EED460E085E154
:10564000EBC49B01AC0160E074E284EF90E00E9447
:10565000C133205131094109510956954795379574
:1056600027952093B800089520914007260F3327EF
:10567000331F21323105ECF420919107FC0190E0B9
:1056800080E0243069F082E00895A09140072191E4
:10569000AC014E5B584FA40FB52FB11D2C93019652
:1056A000861798F380914007680F6093400780E069
:1056B000089581E008959093850780938407089565
:1056C0009093870780938607089585EC8093BC00AC
:1056D000109291070895CF93DF9391E090938907FB
:1056E000882351F0C091B800D091BA009FDF82DFCB
:1056F000D093BA00C093B800DF91CF9108954F9234
:105700005F926F927F928F929F92AF92BF92CF9251
:10571000DF92EF92FF920F931F93CF93DF93D82FD7
:10572000162F072FC42FB22E413208F09DC051D33F
:105730006B017C0180919107811173C081E080939E
:105740009107B0928F079FEF90931E071092630707
:105750009C0F909362078093900780919007DD0FD4
:10576000D82BD093900780918E07813009F07EC0AE
:1057700010928E072ED36B017C018091900780934D
:10578000BB0080918A0790918B07A0918C07B09104
:105790008D07892B8A2B8B2B99F01BD380908A073E
:1057A00090908B07A0908C07B0908D076C197D09A5
:1057B0008E099F0986169706A806B90608F451C0F7
:1057C0008091BC0083FDD9CF85EC8093BC0001D3D0
:1057D0006B017C0180919107813009F449C080916F
:1057E00063078C1710F4C0916307A4E6B7E0912F0C
:1057F000E12FF02F8E2F891B8C1708F45AC08C2FA5
:10580000DF91CF911F910F91FF90EF90DF90CF909C
:10581000BF90AF909F908F907F906F905F904F90D0
:10582000089580918A0790918B07A0918C07B09181
:105830008D07892B8A2B8B2B09F47CCFCAD2409001
:105840008A0750908B0760908C0770908D076C19B9
:105850007D098E099F09461657066806790608F0E5
:1058600069CF8091880737DFC0E0C9CF85EEADCF23
:1058700080918A0790918B07A0918C07B0918D073A
:10588000892B8A2B8B2B09F4A5CFA3D280908A0772
:1058900090908B07A0908C07B0908D076C197D09B4
:1058A0008E099F0986169706A806B90608F092CFBA
:1058B000D8CF8D9181939ECF4F925F926F927F92BE
:1058C0008F929F92AF92BF92EF92FF920F931F938E
:1058D000CF93DF93413208F0D2C0F22ED42FE72EBF
:1058E000162FC82F76D24B015C0180919107811150
:1058F0006DC082E08093910700938F078FEF8093B4
:105900001E0710926307D0936207912FA4E6B7E0B9
:10591000E12FFE2D8E2F891B8D1708F48AC010925F
:10592000900780919007CC0FC82BC093900780916F
:105930008E07813009F080C010928E074AD24B0149
:105940005C01809190078093BB0080918A079091C1
:105950008B07A0918C07B0918D07892B8A2B8B2BFD
:1059600099F037D200918A0710918B0720918C070C
:1059700030918D07681979098A099B09061717075D
:105980002807390708F442C08091BC0083FDD9CFB5
:1059900085EC8093BC001DD24B015C01FF2029F0F7
:1059A00080919107823009F449C080911E078F3F92
:1059B00009F467C080911E07803209F464C08091A9
:1059C0001E07803309F461C084E024C080918A07F7
:1059D00090918B07A0918C07B0918D07892B8A2B12
:1059E0008B2B09F482CFF5D140908A0750908B071A
:1059F00060908C0770908D07681979098A099B0956
:105A0000461657066806790608F06FCF809188071A
:105A100062DE85E0DF91CF911F910F91FF90EF90B3
:105A2000BF90AF909F908F907F906F905F904F90BE
:105A3000089581918D936ECF85EEABCF80918A07CB
:105A400090918B07A0918C07B0918D07892B8A2BA1
:105A50008B2B09F4A3CFBDD100918A0710918B073E
:105A600020918C0730918D07681979098A099B0963
:105A7000061717072807390708F090CFC7CF81E02E
:105A8000C9CF80E0C7CF82E0C5CF83E0C3CF85ED2B
:105A90008093BC0080918A0790918B07A0918C071E
:105AA000B0918D070796A11DB11D23E0B695A7956E
:105AB000979587952A95D1F72091BC0024FD03C0C6
:105AC00010929107089540918A0750918B07609139
:105AD0008C0770918D07452B462B472B69F3009758
